S01700006275696C642F697269732F6D61696E2E7372656343
S11300000C9484010C94A3010C94A3010C94A301FB
S11300100C94A3010C94A3010C94A3010C94A301CC
S11300200C94A3010C94A3010C94A3010C94A301BC
S11300300C94A3010C947A120C94A3010C94C31293
S11300400C94C1150C9472150C94AB150C94B61544
S11300500C94FA150C94A3010C94A3010C94A30121
S11300600C94D6140C94EB120C94A3010C945F130F
S11300700C94A3010C94A3010C94A3010C94A61456
S11300800C9485140C9490140C949B140C94B91433
S11300900C9469140C94A3010C947A140C94A30189
S11300A00C94A3010C94A3010C94A3010C94A3013C
S11300B00C94A3010C94A3010C94A3010C94A3012C
S11300C00C94A3010C94A3010C94A3011E0E660EC0
S11300D0A80EC90ED80EA50FC90FCB0FD60F2F101F
S11300E0181051107310B010061179110B12B111C0
S11300F0C511CA13D513EA13311438143F14461426
S11301004D1400020E060C0400002110422063303E
S11301108440A550C660E770088129914AA16BB15B
S11301208CC1ADD1CEE1EFF1311210027332522203
S1130130B5529442F772D662399318837BB35AA3AB
S1130140BDD39CC3FFF3DEE36224433420040114D3
S1130150E664C774A44485546AA54BB528850995FB
S1130160EEE5CFF5ACC58DD55336722611163006A3
S1130170D776F6669556B4465BB77AA7199738874B
S1130180DFF7FEE79DD7BCC7C448E5588668A77863
S11301904008611802282338CCC9EDD98EE9AFF99B
S11301A0488969990AA92BB9F55AD44AB77A966A43
S11301B0711A500A333A122AFDDBDCCBBFFB9EEBEB
S11301C0799B588B3BBB1AABA66C877CE44CC55C13
S11301D0222C033C600C411CAEED8FFDECCDCDDD3B
S11301E02AAD0BBD688D499D977EB66ED55EF44EE3
S11301F0133E322E511E700E9FFFBEEFDDDFFCCF8B
S11302001BBF3AAF599F788F8891A981CAB1EBA1DE
S11302100CD12DC14EF16FE18010A100C230E3205A
S11302200450254046706760B9839893FBA3DAB302
S11302303DC31CD37FE35EF3B1029012F322D232AA
S11302403542145277625672EAB5CBA5A8958985D2
S11302506EF54FE52CD50DC5E234C324A0148104FA
S11302606674476424540544DBA7FAB79987B897A2
S11302705FE77EF71DC73CD7D326F2369106B0164A
S113028057667676154634564CD96DC90EF92FE962
S1130290C899E9898AB9ABA944586548067827689A
S11302A0C018E1088238A3287DCB5CDB3FEB1EFB42
S11302B0F98BD89BBBAB9ABB754A545A376A167AEA
S11302C0F10AD01AB32A923A2EFD0FED6CDD4DCD12
S11302D0AABD8BADE89DC98D267C076C645C454C3A
S11302E0A23C832CE01CC10C1FEF3EFF5DCF7CDFE2
S11302F09BAFBABFD98FF89F176E367E554E745E8A
S1130300932EB23ED10EF01E11241FBECFEFD1E2C8
S1130310DEBFCDBF12E0A0E0B2E0E6E2F2E300E02F
S11303200BBF02C007900D92A234B107D9F715E0B4
S1130330A2E4B2E001C01D92A13CB107E1F70E9422
S113034025160C9411190C9400002F980895289ADE
S113035008950DB407FEFDCF8EB50895982F0DB402
S113036007FEFDCF8EB59EBD089528980895862773
S1130370082E8295807F8025092E982F82958F7074
S11303800826869598278927880F880F880F802547
S113039008959FB7F894809193038F5F809393039C
S11303A09FBF0895E3ECF4E01182108284E080930F
S11303B09002109292031092D70410929402109219
S11303C01B0310921A0308958091DC048F3F69F097
S11303D0E82FF0E0EE58FD4F90819093DC049F3FAE
S11303E011F49093AF059FEF908308958091B0002E
S11303F08093B0008091B60081FDFCCF08959FB733
S1130400F894E82FF0E0EE58FD4F20812F3F99F447
S1130410E091AF05E81779F02091DC042F3F19F43F
S11304208093DC0404C0F0E0EE58FD4F8083809399
S1130430AF0580E001C085E09FBF08958AE00C9479
S1130440FF018DE00C94FF010F931F932FB7F894D5
S113045040919B0250919C0260919D0270919E027A
S11304608091840090918500B09B08C04F5F5F4FDE
S11304706F4F7F4F80918400909185002FBFBA0108
S113048055274427A0E0B0E08A019B01082B192BD3
S11304902A2B3B2BC901B8011F910F91089540915C
S11304A08400509185006FB7F894209184003091B6
S11304B085002D5F3F4FF901E41BF50BE817F907A1
S11304C018F49C01240F351F2115310511F421E086
S11304D030E021503109309389002093880082E074
S11304E086BB80916F00826080936F006FBF089518
S11304F00F931F93CF93DF938C018FB7F894C09120
S11305008F03D09190039E012F5E3E4F3093900352
S113051020938F038FBF8FE00E94FF01CE01B801AB
S11305200E943D188A5D9E4FDF91CF911F910F91DC
S113053008952FB7F89480910702909108022FBF75
S113054008952FB7F8943091B20080916D02909184
S11305506E02A0916F02B0917002B99B0BC04091E2
S1130560B3003091B2000196A11DB11D840F911DFD
S1130570A11DB11DBC01CD01630F711D811D911D14
S11305802FBF0895CF93CFB7F8948091A905811117
S113059008C084E00E94FF01811103C081E08093C0
S11305A0A905CFBFCF91089580918C038A3021F49F
S11305B080919002843021F081E080935902089563
S11305C086E00E94FF01109259020895E8E0F1E0EC
S11305D06927660FF11DE60FF11DC895982F802D30
S11305E03196C8959025089520914D029091580216
S11305F021112FC081112DC081E080934D022091E3
S11306000F0220934C02292F217020936B0220911A
S1130610090230910A0230934B0220934A0220913E
S1130620570220934902292F21708227967EE82FB2
S1130630F0E0EE0FFF1FE55FFD4F20813181309325
S11306400A0220930902982B9093580289E00C9493
S1130650FF0190FF02C09B7F01C09D7F90935802D1
S11306600895CF93DF93D82FC62F809190028130C5
S113067061F028F0823099F0833019F1E2C0DD2373
S113068009F425C10E94D201ECC0D11120C16093AC
S1130690D7048CEB860F823008F0D3C0E4C0D111AC
S11306A0D0C06093940280911A0390911B030E941E
S11306B0E60290931B0380931A0383E080939002D5
S11306C006C1809192038F3F09F4BBC0DD2309F476
S11306D054C0823008F4B5C0E091C304EE2311F095
S11306E0E15001C0E2E0AE2FB0E0AD53BB4F129633
S11306F02C9130E0322F2227EE2311F0E15001C07B
S1130700E2E0F0E0ED53FB4F8281282B80911A0345
S113071090911B032817390709F093C080E00E94C9
S1130720F4028091D7048434A9F420919402E091D6
S11307300A0390910B0381E08E0F863008F4BDC04C
S1130740992341F0F0E0E65FFC4F228310920A0304
S11307500E94C2020E94D201809148028D7F809340
S1130760480280915902882309F4B1C084E080933F
S11307709002DF91CF910C94D402823008F44CC0E3
S1130780E091C404F0E0ED53FB4F92818091580254
S1130790282F269526952695237030E021303105A3
S11307A021F02230310579F01EC0877E806180936C
S11307B05802992311F080E001C085E0809357022C
S11307C090930F0210C0809157028F3260F4E09131
S11307D00902F0910A02E80FF11D908380915702FB
S11307E08F5F809357028091C404E82FF0E0ED53AB
S11307F0FB4F62818F5F833018F48093C40402C07E
S11308001092C40480911A0390911B030E94E60283
S113081090931B0380931A038091C304E82FF0E0A4
S1130820ED53FB4FC2838F5F833018F48093C3046E
S113083002C01092C304809192038F5F809392034D
S113084046C00E94D201809148028D7F8093480265
S113085081E00E94F40280915902811187CFDD2347
S1130860B1F181E02BCF80911A0390911B030E9478
S1130870E60290931B0380931A03C43411F482E0BC
S113088001C083E0809390029091580290FF04C0CD
S113089092FDD7CF946003C091FDD3CF9260909323
S11308A0580280915802877E886080935802109283
S11308B057028FEF80930F020AC0891709F44ACFB9
S11308C0F0E0E65FFC4F228380930A0341CFDF917F
S11308D0CF910895CF93DF93DFB7F894C09142028C
S11308E0C11109C081E0809342021092000282E1AA
S11308F00E94FF0118C08091A2028F3F99F4E091F9
S11309000102EE2379F0809102028F3F19F41092D4
S1130910020204C0F0E0EE55FD4F10821092010275
S1130920C0E001C0C5E0DFBF8C2FDF91CF910895F7
S11309309C018091530290915402892BB1F59FB789
S1130940F89485E08093510210925002309356023D
S11309502093550222E030E0309354022093530256
S113096010924E0210924F02645F609352029FBF36
S11309708FB7F89490918C039A3011F48FBF17C0FD
S11309808FBF9FB7F8948091A902811106C081E0BE
S11309908093A9021092AA0201C080E09FBF88231D
S11309A031F00E94C20280E0089585E0089510921B
S11309B054021092530281E008958FEF80937E05D4
S11309C080937D0584E6809383058091160390913E
S11309D01703892BF1F488E795E09093170380932C
S11309E016038CE18093810580911002882391F095
S11309F0109210026CE188E795E00E949804882325
S1130A0049F091E09093100210921703109216038C
S1130A10089585E00895809145028C3118F4482F9B
S1130A2050E002C04CE150E09CE1E4E8F5E0DF0175
S1130A301D929A95E9F79091470220E030E024173F
S1130A40350799F0E92FF0E0ED53FC4F60818823DE
S1130A5029F09F5F9A3F09F490E08150F901E8582A
S1130A60FA4F64872F5F3F4FEACF909347028093FA
S1130A7045020E94DD0481110C941E020895CF9357
S1130A80DF931F92CDB7DEB79091440291110BC052
S1130A90909145029D3738F091E090934402898308
S1130AA00E940B0589813FB7F894209145022A3FA3
S1130AB0B8F490914602E92FF0E0ED53FC4F8083A7
S1130AC081E0890F8A3F19F08093460202C0109298
S1130AD046022F5F209345023FBF80E090E003C0B1
S1130AE03FBF8FEF9FEF0F90DF91CF910895CF938A
S1130AF0DF93DFB7F89480914302823021F5C091EF
S1130B000302C11120C0909105029F3FB1F0E92F6B
S1130B10F0E0E657FD4F8081809305028F3F11F48A
S1130B20809304028FEF80839093030281E080938B
S1130B3043028BE00E94FF0104C0909303021092D1
S1130B404302DFBF02C0DFBFC1E08C2FDF91CF9132
S1130B500895CF93DF93DFB7F894809142028230F7
S1130B6039F5C0910002C11123C0909102029F3F48
S1130B70B1F0E92FF0E0EE55FD4F80818093020241
S1130B808F3F11F4809301028FEF808390930002D2
S1130B9081E08093420282E10E94FF0104C09093AD
S1130BA00002109242028CB58F7B8CBDDFBF02C065
S1130BB0DFBFC1E08C2FDF91CF910895CF92DF92F8
S1130BC0EF92FF920F931F93CF93CFB7F894209196
S1130BD0B3009091B20087B3291711F081FF02C0CE
S1130BE0CFBF7CC080919502811102C086EE3FC0C8
S1130BF00E94A102C0906502D0906602E090670254
S1130C00F09068020091E2041091E3042091E4045E
S1130C103091E504AB01BC014C195D096E097F09F3
S1130C20401751076207730728F01092950286EE69
S1130C3091E01EC0D901C8018C0D9D1DAE1DBF1DC4
S1130C4040916D0250916E0260916F02709170023A
S1130C50841B950BA60BB70B873E9105A105B10527
S1130C6028F682309105A105B10508F482E090E0F0
S1130C702FEF280F3091B60033FDFCCF3091B20036
S1130C802313822F40916D0250916E0260916F0286
S1130C90709170028A019B010F5F1F4F2F4F3F4FCE
S1130CA0080F111D211D311D0417150726073707CD
S1130CB010F4842F80952091B60023FDFCCF8093FF
S1130CC0B300CFBF992351F080E0CF911F910F91D2
S1130CD0FF90EF90DF90CF900C94FF01CF911F9184
S1130CE00F91FF90EF90DF90CF900895CF93DF9313
S1130CF01F92CDB7DEB789830E94B50189818068D0
S1130D008EBD80E00E94AE010E94A90189830E94E9
S1130D10A70189810F90DF91CF9108951F93CF93FD
S1130D20DF931F92CDB7DEB7182F69830E94B501F8
S1130D30912F906C9EBD89810E94AE010E94A901F1
S1130D400F90DF91CF911F910C94A7018CB58F7BED
S1130D508CBD229A2398219A209A8CB580618CBDEF
S1130D608CB58F778CBD8CB5877F8CBD8CB58B7F14
S1130D708CBD8CB580648CBD8DB581608DBD8CB50A
S1130D808C7F8CBD0895CF93DF93FC01228130E0EA
S1130D90322F22274181242B25FF15C027743C7C48
S1130DA02134384881F4FC01C781D0E0DC2FCC2702
S1130DB08681C82B0E94990221E0C817D90709F03F
S1130DC020E0822F01C080E0DF91CF910895CF937E
S1130DD08FB7F89490910002911106C0909142024D
S1130DE0923011F48FBF0FC08FBFCFB7F8948091AA
S1130DF0420281110AC082E08093420210920002F2
S1130E000E94A606CFBF81E004C0CFBF0E946A043F
S1130E1080E0CF91089510921002E0911603F091B2
S1130E2017033097D1F08091E10480FD16C08091C2
S1130E301002811116C02581868161856D3118F0FB
S1130E4083E00C94FF0190E0922B86839583CF017D
S1130E500E949804882329F0F3CF81E08093100244
S1130E60E6CF08958091A4029091A502892BC1F543
S1130E7081E090E09093CC048093CB0485E892E0E9
S1130E809093A5028093A402109292021092910270
S1130E9081E0809393028091C00080648093C000BD
S1130EA08091C10080648093C100809191029091EF
S1130EB092029C012F5F3F4F309392022093910244
S1130EC0FC01EB57FD4F80819FB7F8948093C600D7
S1130ED08091C00080648093C0009FBF80E008952B
S1130EE085E0089593E8980F923050F49091480269
S1130EF091609093480290E28927809391038DE753
S1130F00809385020C9432079FB7F894809148022D
S1130F108E7F809348028EE7809385029FBF0C9456
S1130F2032072F923F924F925F926F927F92AF92CD
S1130F30BF92CF92DF92EF92FF920F931F93CF93C2
S1130F40DF9320915C02222311F015E0DEC01091A2
S1130F5077051530D1F72091C8042111F6CFEC01A3
S1130F600E94E706882389F38CA582FF03C06EA53F
S1130F706F7001C060E08091DA02681731F060930D
S1130F80DA02606885E00E948E062A8130E0322F02
S1130F9022278981282B27743C7C21343848A1F4EA
S1130FA086E00E9476068F7190E040919A0220912B
S1130FB08B0230E0240F311D43E0359527954A9587
S1130FC0E1F72817390744F169E082E00E948E06B0
S1130FD00E9424022B013C016E01EFEFCE1ADE0ABF
S1130FE008818CA52EEFB22EB00E84FF09C09E019D
S1130FF02C193D098BEF800FA82EA20EBA1802C03F
S1131000AB2CB12C81E00E9476068F71893039F0C7
S113101066E082E00E948E060E94A90576C08FB722
S1131020F8942F9AE0908400F09085008FBF0E947E
S1131030A5010E94B50180E68EBD802F0E94AE01FD
S113104086013A2CF80181918F010E94AE013A94F5
S11310503110F8CFAA942A2D30E08601020F131F15
S11310602F5F3F4F2C0D3D1D1701F2EA2F0E311C4F
S113107024183508C101AA2797FDA095BA2F12019B
S11310802301280E391E4A1E5B1EBB2041F1F801C4
S11310908181C280D12CE12CF12C7601DD24CC2479
S11310A0F82A8481C82A8381D82AD701C6018219E3
S11310B09309A409B50984839383A283B183A22EDF
S11310C03901F30181913F010E94AE01862D8A19F5
S11310D08B11F7CFF801C482D382E282F1820E949D
S11310E0A9010E94A70166E082E00E948E068CA5F9
S11310F082608CA728A639A64AA65BA686E08093C0
S1131100770584E080935C0210E0812FDF91CF911A
S11311101F910F91FF90EF90DF90CF90BF90AF9011
S11311207F906F905F904F903F902F9008953F92E3
S11311304F925F926F927F928F929F92AF92BF92E3
S1131140CF92DF92EF92FF920F931F93CF93DF938F
S113115000D0CDB7DEB714E030E8A32E05E043E0BD
S1131160D42E59E0852E62E0C62E78E0B72E8AEAA6
S113117095E0E5E09E2E980E80918803823009F078
S11311807DC0109288038091A602823009F459C070
S1131190833009F461C0813009F070C0209184006B
S11311A0309185006090140370901503621A730ADD
S11311B090918F02903841F410928F0290918E0298
S11311C0923009F05BC03AC097FF04C016141704AC
S11311D00CF4A8C3E0908C02F0908D0280916C0214
S11311E08111A0C3C7010E949107282F81119BC3BD
S11311F0D7019C968C919C978E7F9C968C9381E0D2
S113120080936C02F092B105E092B005D0928F0207
S113121035C097FF9FC3161417040CF09BC3A0920C
S11312208F0281E08093A60280938803C3012983FF
S11312300E944F0229812093E60481E080938E026C
S113124008C010926C0210928F021092E604109360
S11312508E020E94210212C090917705923019F4F7
S11312608093770509C080915C02863029F410923E
S11312705C0281E00E9476060E94FD0C8091C80405
S1131280882309F4B3C080917705813009F4AEC096
S11312900E94E706882309F4A9C08FB7F8946090E8
S11312A09F027090A0028FBF1092C8048FE00E942A
S11312B07606F82E80915C028B7F833021F40093B4
S11312C07705B0925C02F2FE4AC080915C028630DF
S11312D011F410925C0280915C02811140C0B4E070
S11312E0FB1234C086E00E9476068F7190918B02C7
S11312F0292F26952695921B980F90938B02E091A7
S11313006902F0916A0294A59B7F986094A786A7CE
S11313100E942402930127503109261B370B29010F
S1131320662457FC6094762CE0916902F0916A027D
S113133024A5226024A7AB01BC01440D551D661DE4
S1131340771D40A751A762A773A707C0E091690260
S1131350F0916A0284A5857F84A700935C02F3FE62
S113136045C080915C02843081F50093770510922A
S11313705C0280916C02833019F410926C0236C0C6
S1131380E091B005F091B105828190E0982F882713
S11313902181822B85FF0EC087749C7C8134984800
S11313A049F4878190E0982F88272681822B019623
S11313B009F0D3C210926C0210928F021092E604CC
S11313C010938E020E94210211C0853079F486E0C8
S11313D00E94760690919A028F71292F2695269560
S11313E0921B980F90939A0280925C0280915C0207
S11313F0882309F44DC2893009F0BCC10E94B501AB
S113140080E28EBD0DB407FEFDCF8EB51EBC0DB4BB
S113141007FEFDCF8EB59DEF980F973208F07AC086
S11314201EBCE0916902F0916A023F015FEF651A08
S1131430750A8083AEEF5A2E580E86E0851510F09B
S1131440452C02C0F7E04F2E7301342C40E050E0ED
S113145080E049835A830E94AE01D7018D937D01B8
S1131460682F49815A81CA010E94B701AC013A949C
S11314703110EECF2FEF240D30E02F5F3F4F620E7F
S1131480731EE0916902F0916A0281818770823053
S113149029F480916C028230D9F50BC09FB7F8947F
S11314A081E02091BD04233008F080E09FBF8823B1
S11314B079F1852D84197301680E80E049835A837C
S11314C06E1469F00E94AE01F70181937F01682FC9
S11314D049815A81CA010E94B701AC01EECF0E9432
S11314E0AE01682F49815A81CA010E94B7017C016B
S11314F080E00E94AE01682FC7010E94B7017C0101
S11315000E94A901E0916902F0916A0285A705C0D1
S11315100E94A901EE24E394F12C0E94A7010093F8
S1131520770510925C02EF2809F0A9C14090690286
S113153050906A02D20111968C9111978770909104
S11315406C02823029F5923009F00FC1E091B005A8
S1131550F091B10513969C918381981306C18091F3
S11315606F008D7F80936F0010928803E091B00527
S1131570F091B10584A5816084A710926C02109249
S11315808F021092E60410938E020E942102EDC095
S1131590911117C0C2010E94C306882391F00093E1
S11315A0DB02C092DC021092DD02F201838180939F
S11315B0DE028BED92E00E949107811102C0D0926D
S11315C06C02E0908400F0908500C2010E94C30682
S11315D0882321F0F4EEEF1AFCEFFF0AF0921503D2
S11315E0E092140380918400909185009701281B58
S11315F0390BC90118161906ACF420918F02211178
S11316000EC02091880321110DC021E02093A60271
S1131610209388030E944F02A0928F0203C0206887
S113162020938F02D20119968C91199790E0982FEC
S1131630882718962C91822B20917102422F50E01A
S1131640FA01EE0FFF1FE353FB4F60817181F090AD
S113165089036817790711F4FA0110C0ADECB4E0FE
S1131660EAEAF5E020E030E070E060E04D915D9161
S11316704817590779F420937102F901E655FA4F96
S113168080818F1509F43FC0F394F0928903F082AE
S113169060E822C041915F2D541B651710F4722F2E
S11316A0652F2F5F3F4F2530310501F7709371028D
S11316B0272F30E0F901EE0FFF1FE353FB4F918317
S11316C08083F394F0928903F901E655FA4FF0828E
S11316D0F901EA54FA4F108280918903982F9F7779
S11316E09F3719F0209171020EC06F37D8F3EAEAE0
S11316F0F5E0282F207890819F67981320833196F6
S11317009E12F9CFEFCFD20113969C91E22FF0E015
S1131710DF01AA54BA4F8C91E254FB4F80FF04C0FE
S11317208081981303C021C081608C939083FFB69D
S1131730F8948091BD048330B8F4E091E004E80F9C
S1131740E33008F0E350F0E0EE0FFF1FE15AFD4FE5
S11317507080E180518240828F5F8093BD048EE06F
S11317600E94FF01472C5E2CFFBE50926A024092F9
S1131770690285C09FEF980F933008F06EC09EEF0A
S1131780980F9230D8F520917705213099F49091F3
S1131790880391110FC029830E94A501D092A6024B
S11317A02981209388038BE293E00E944F02C09228
S11317B077053EC0833011F5233001F50E94E7061A
S11317C08823E1F08FE00E94760680918100806496
S11317D08093810080E286BB80916F008062809359
S11317E06F0060918702606688E00E948E0666E062
S11317F082E00E948E06109377051AC080915C02E5
S113180081508230A8F480917705853089F40E9454
S1131810E706882369F063E082E00E948E068091E7
S11318206F008F7D80936F001092C804D09277056B
S113183080915C02813041F4909177059330F9F402
S11318402F9A8093770506C08230C9F4809177057A
S11318508330A9F4B0925C0212C0873081F40E94F4
S1131860E706882361F060918702606688E00E9441
S11318708E0680917705853069F7109377058091FE
S11318805C02883029F410925C028CE00E94FF0113
S113189080915C0281111DC0809177058530C9F467
S11318A08091C804811115C080916C02811111C00E
S11318B080918F0281110DC080918803811109C02C
S11318C080918E02823029F481E080938E020E94FE
S11318D0210280915C02811103C080E10E94FF011A
S11318E08FB7F894909193039130B9F410929303C5
S11318F08FBF0F900F90DF91CF911F910F91FF90A9
S1131900EF90DF90CF90BF90AF909F908F907F909B
S11319106F905F904F903F90089591E09093930360
S11319208FBF2ACC25E090918F02892F8F77813049
S113193009F06FCC9078926090938F0280E198E0E8
S11319400E94780221E02093A602209388030E943B
S11319504F0294CC10928F026ECC80918803811137
S113196029CDC092A60281E08093880389E993E09F
S11319700E944F02C0926C0239CD9FB7F8948091B7
S11319809303815080939303803811F09FBF08958F
S113199081E0809393039FBF0C9497080F931F9348
S11319A0CF93DF931F92CDB7DEB78C018FE3F8019D
S11319B0828790915B029F5F90935B0293830E9466
S11319C0C90180918E0281110DC010938E03009382
S11319D08D0381E080938E0210928A030E9421027B
S11319E080E001C085E089830E94BD0C89810F904D
S11319F0DF91CF911F910F9108959FB7F894809133
S1131A009303882329F08068809393039FBF0895EC
S1131A1081E0809393039FBF0C9497088FB7F89449
S1131A2008958FBF08958FB7F89490914402913030
S1131A3011F48FBF0EC090914502911104C08FBF65
S1131A4081E090E0089591E0909344028FBF0E945A
S1131A500B0580E090E008958F929F92AF92BF9221
S1131A60CF92DF92EF92FF920F931F93CF93409107
S1131A70270341FFBBC080901F0390902003A090D8
S1131A802103B0902203C0902303D0902403E0905C
S1131A902503F09026038B019C01081919092A09D2
S1131AA03B090C151D052E053F0508F49FC040FF9A
S1131AB005C0842F8D7F809327030EC0B701A60134
S1131AC0480D591D6A1D7B1D40931F03509320032D
S1131AD0609321037093220380915A028F5F809355
S1131AE05A02C0917605C11181C08091960390E09D
S1131AF0982F882720919503822B9C0127743C7C86
S1131B002134384849F08073992781649868809318
S1131B10950388E8809396038DE0809394030E9454
S1131B20990280939C0390939D039FB7F8948091AE
S1131B3006029FBF809398031092990380EF8093CD
S1131B409F038FEF80939A0380939B038FB7F8943E
S1131B509091430291110FC092E09093430210922E
S1131B6003028FBF84E993E00E94CE0C8823A1F185
S1131B700E9477053BC08FBF84E993E0909389026C
S1131B80809388021FB7F8948091430281110AC0A0
S1131B9081E080934302109203028BE00E94FF01D4
S1131BA01FBF1AC080918A028F3F91F4E091040212
S1131BB0EE2371F0809105028F3F19F41092050213
S1131BC004C0F0E0E657FD4F10821092040201C0F9
S1131BD0C5E01FBFC1110AC0129881E08093760549
S1131BE081E292E00E94E4180E94130D81E0CF91FB
S1131BF01F910F91FF90EF90DF90CF90BF90AF9027
S1131C009F908F900C94FF014F925F926F927F92FE
S1131C108F929F92AF92BF92CF92DF92EF92FF92F8
S1131C200F931F93CF93DF9390E08331910508F0D6
S1131C3050C4FC01EA59FF4F0C949E18809186020F
S1131C40811141C04091D8045091D9046091DA04C3
S1131C507091DB042FB7F894C090E204D090E304B1
S1131C60E090E404F090E5048091650290916602AE
S1131C70A0916702B09168028C0D9D1DAE1DBF1D21
S1131C802FBF4093D8045093D9046093DA0470931F
S1131C90DB04109286022FB7F89431E0309395025A
S1131CA08093650290936602A0936702B0936802E2
S1131CB04093E2045093E3046093E4047093E504D6
S1131CC02FBF0E94DE050E94A10230C00E94A10223
S1131CD02FB7F894109295022FBF2091270321FF6C
S1131CE0F8C300911F031091200320912103309128
S1131CF022036B017C01C01AD10AE20AF30A97019C
S1131D008601C0902303D0902403E0902503F09033
S1131D102603C01AD10AE20AF30A2FEFC216D2062A
S1131D20E2062FE7F20609F09CC3D3C3DF91CF91FB
S1131D301F910F91FF90EF90DF90CF90BF90AF90E5
S1131D409F908F907F906F905F904F900C942C0D8C
S1131D508091E104882309F4BCC306E113E0C0E0E8
S1131D60D1E08091E1049D2F982361F0F801118264
S1131D7010829D2F909589238093E104C11102C0A4
S1131D800E941E02DD0FCF5F0E5F1F4FC83049F760
S1131D90A0C3C0911002EC2FF0E0EE0FFF1FEA5E2B
S1131DA0FC4F118210820E940B07C11192C345C1DE
S1131DB02FB7F8941092A90590918C0388EF890F9E
S1131DC0823050F410928C03E0911E03F0E0EE0F89
S1131DD0FF1FE955FD4F10822FBF823018F52FB732
S1131DE0F8948091DF048F5F8093DF048091A302D5
S1131DF0833489F480910B0390910A03981741F07E
S1131E008F5F863018F480930B0302C010920B038B
S1131E1090E080E005C081E0983009F480E091E032
S1131E202FBF04C091111BC380E090E03FB7F8942A
S1131E30209159023FBF222339F02FB7F8943AE09A
S1131E4030938C032FBF3FC04FB7F8943091A70253
S1131E502091A9024FBF6FB7F89450910A034091A3
S1131E600B036FBF541709F131111FC03FB7F8942A
S1131E7022E02093A7025FB7F89440910A032091CF
S1131E800B035FBF421739F0E0910B03F0E0E65F0C
S1131E90FC4F228101C020E02093A80223E4209378
S1131EA0A30210921E033FBF0CC02150223058F4ED
S1131EB02FB7F89435E43093A30231E030931E0336
S1131EC02FBFC1E001C0C0E0992341F09FB7F8944F
S1131ED0809350029FBF88E00E94FF01DFB7F8940F
S1131EE080918C038A3021F40E94D402DFBFF1C2B6
S1131EF0DFBFCC2309F4EDC28FB7F8941092B30579
S1131F001092B2051092A10291E090938C038FBFBE
S1131F100E948407882309F4DCC28FB7F89499E0FF
S1131F2090938C038FBFDF91CF911F910F91FF90FE
S1131F30EF90DF90CF90BF90AF909F908F907F9065
S1131F406F905F904F900C94C2028091C1008F7B80
S1131F508093C1008091C1008F778093C10010925B
S1131F608B03109293028091C10088608093C1001A
S1131F708091C10080618093C1008091C10080681C
S1131F808093C1008FB7F89410928C031092900242
S1131F90FAC187E0CBC08091C100877F8093C100E4
S1131FA08091C1008F7E8093C10093C2109254022D
S1131FB0109253028FB7F894C09150028FBF809152
S1131FC04F028111C3E080915502909156022091F5
S1131FD04E0221117EC22091100221117AC2209159
S1131FE01603309117032817390709F072C21092AB
S1131FF01703109216030E940B07C1111EC0809193
S11320004502882391F0DF91CF911F910F91FF90AA
S1132010EF90DF90CF90BF90AF909F908F907F9084
S11320206F905F904F900C940B051092440251C234
S11320300E94DD04882309F44CC2DF91CF911F91E3
S11320400F91FF90EF90DF90CF90BF90AF909F9053
S11320508F907F906F905F904F900C941E029FB76B
S1132060F89420914A0230914B0280916B029FBFF9
S11320709FB7F894E82FF0E0EE0FFF1FE55FFD4FE8
S113208031832083882321F0809158028B7F03C001
S1132090809158028D7F8093580210924D029FBF09
S11320A018C28FB7F89492E0909343028FBF809147
S11320B0030281110EC280918802909189020E94CC
S11320C0CE0C882309F405C20E947705E0918802AA
S11320D0F09189028385803F09F0FBC1E459F34004
S11320E009F0F7C18FC080918E0210928E02853064
S11320F079F50E94A10260931F03709320038093DB
S113210021039093220388EE93E0A0E0B0E0809353
S1132110230390932403A0932503B0932603809173
S113212027038E7F82608093270381E0DF91CF9124
S11321301F910F91FF90EF90DF90CF90BF90AF90E1
S11321409F908F907F906F905F904F900C94FF01C1
S11321509AEF980F923008F4BCC180938E02B9C1F3
S11321600E94C901D0918E02D13091F580918A03E9
S11321708F5F80938A03863058F580918D03909108
S11321808E0320918F02211115C0C0918803C111C3
S113219011C090938D0280938C02D0938F028BEDAB
S11321A091E10E947802D093A602D09388030E9402
S11321B04F0201C0C5E0C093E604C11104C083E02E
S11321C080938E0208C082E080938E02C0E003C038
S11321D010928E02C1E00E94BD0CCC2309F479C197
S11321E0C0918D03D0918E038A858F3309F071C11C
S11321F00E9477058B85803F09F06BC1C459D34099
S113220009F067C110927605129A63C112E08FB784
S1132210F8949091BD04992309F4B5C0E091E004C9
S1132220F0E0EE0FFF1FE15AFD4FC081D1818FBF57
S113223088819EEF980F993008F440C09A859F33A7
S113224061F58B508230D0F10B85EF80F12CFE2CA0
S1132250EE248E81E82AEFEFEE16FE0649F49C8107
S11322602FB7F894809106022FBF981739F026C033
S11322700E949902E816F90609F5F1CF003FF1F43E
S11322809FB7F89482B1812782B99FBF8FE292E011
S11322900E94E4180E94130D11C0EF80F12CFE2C53
S11322A0EE248E81E82A0E949902E816F90619F0B4
S11322B0EF20E09419F48FB7F8948FBF9FB7F89488
S11322C08091E004E82FF0E0EE0FFF1FE15AFD4F8C
S11322D0D183C0838F5F833018F48093E00402C0FD
S11322E01092E0048091BD0481508093BD049FBF8F
S11322F08ECFCFB7F8946091960270919702809137
S11323009802909199022EE433E840E050E00E9454
S1132310731829013A0100E20E94A91849015A01DF
S11323207694679457944794840C951CA61CB71C08
S1132330B7FE07C0E894B7F82FEF821A920AA20AF0
S1132340B20A8092960290929702A0929802B0925A
S11323509902CFBF8FB7F8949092900380928F0325
S113236012C08FB7F89410928703109286031092CC
S113237075051092740510925E0210925D0210921F
S11323801303109212038FBFA4C0CFB7F89482E056
S1132390809342020E94A606CFBF80910002811161
S11323A098C080917705811148C0CEEFD1E0CE016D
S11323B0019701960197E1F716980E94A50186E01E
S11323C090E0019701960197E1F7169A60E083E0A7
S11323D00E948E0668E082E00E948E062197219674
S11323E02197E1F76DE48EE00E948E0667EC89E0A8
S11323F00E948E0660E885E00E948E061092DA0242
S11324008AE1809387026AE788E00E948E062F9A09
S113241081E080937705DF91CF911F910F91FF9019
S1132420EF90DF90CF90BF90AF909F908F907F9070
S11324306F905F904F900C94A905DF91CF911F91FD
S11324400F91FF90EF90DF90CF90BF90AF909F904F
S11324508F907F906F905F904F900C94FD0CC0E034
S11324603DCD1C141D041E041F040CF05FCCC0924F
S1132470D804D092D904E092DA04F092DB0421E08B
S1132480209386023FB7F8942093950260936502E7
S1132490709366028093670290936802C092E2048C
S11324A0D092E304E092E404F092E5043FBFDF91AC
S11324B0CF911F910F91FF90EF90DF90CF90BF903D
S11324C0AF909F908F907F906F905F904F900C94FF
S11324D0DE05DF91CF911F910F91FF90EF90DF9078
S11324E0CF90BF90AF909F908F907F906F905F90B0
S11324F04F9008951F920F920FB60F9211240BB6AE
S11325000F920F931F932F933F934F935F936F9368
S11325107F938F939F93AF93BF93EF93FF930E9407
S1132520F6018091B30090E0019640916D025091C4
S11325306E0260916F02709170028A019B01080F14
S1132540191F211D311D00936D0210936E022093FB
S11325506F023093700278940E94DE05FF91EF9130
S1132560BF91AF919F918F917F916F915F914F91A7
S11325703F912F911F910F910F900BBE0F900FBEA3
S11325800F901F9018951F920F920FB60F9211245F
S11325900BB60F922F933F934F935F936F937F9359
S11325A08F939F93AF93BF93EF93FF930E94F60192
S11325B0FF91EF91BF91AF919F918F917F916F9117
S11325C05F914F913F912F910F900BBE0F900FBED3
S11325D00F901F9018951F920F920FB60F9211240F
S11325E00BB60F922F933F934F935F936F937F9309
S11325F08F939F93AF93BF93EF93FF938091C0000A
S113260087FF4AC06091C60020911C0330911D03CE
S11326102115310551F18091A7059091A805AC01D0
S11326204F5F5F4F5093A8054093A705F901E80F4A
S1132630F91F60832091A7053091A8058091B40506
S11326409091B5052817390738F110921D0310929F
S11326501C0380918B038330F9F08091C1008F7744
S11326608093C10010928B0317C06E3719F460E099
S113267081E010C0809148026D3721F4826080931C
S113268048020AC081FF05C08D7F8093480280E222
S1132690682780E00E943103FF91EF91BF91AF91D1
S11326A09F918F917F916F915F914F913F912F9166
S11326B00F900BBE0F900FBE0F901F90189578943B
S11326C01F920F920FB60F9211240BB60F92EF9236
S11326D0FF920F931F932F933F934F935F936F93A7
S11326E07F938F939F93AF93BF93CF93DF93EF9396
S11326F0FF9380919102909192022091CB043091AA
S1132700CC0482179307D0F42091A4023091A5023F
S1132710AC014F5F5F4F5093920240939102F901D5
S1132720E80FF91F80819FB7F8948093C6008091C9
S1132730C00080648093C0009FBFB2C01092A50205
S11327401092A402109293028091C1008F7B809317
S1132750C1000FB7F89480914802982F9170F92E18
S113276080FF0AC08E7F80934802809191038093FA
S113277085020E94320793C0E0918C038E2F90E073
S1132780FC013197E830F10508F084C0E758FF4FA9
S11327900C949E188091A3020E947207182F83E064
S11327A080938C036091A3020AC08091DF040E948D
S11327B07207182F83E080938C036091DF0480916B
S11327C0B2059091B3050E94E6029093B3058093FD
S11327D0B2055EC0E0911E03F0E0EE0FFF1FE95565
S11327E0FD4F81810E947207182FE0901E03CE2DA9
S11327F0D0E0CC0FDD1FFE01E955FD4F61818091D2
S1132800B2059091B3050E94E6029093B3058093BC
S1132810B2059091A1029F5F9093A10281E0E8121A
S11328201EC080915102E0915502F0915602E80FCA
S1132830F11D20818F5F809351023091520238172D
S113284020F482E08093A90201C0F22EC955DD4F25
S11328508881823021F09F3F11F0F98219C084E011
S113286012C08091B2050E947207182F85E00BC038
S11328708091B3050E947207182F86E004C00E945D
S11328808407182F87E080938C0302C088E003C07C
S1132890112329F089E080938C030E94C2020FBFA8
S11328A0FF91EF91DF91CF91BF91AF919F918F9164
S11328B07F916F915F914F913F912F911F910F9154
S11328C0FF90EF900F900BBE0F900FBE0F901F90D4
S11328D018951F920F920FB60F9211248F93809127
S11328E0C80087FD8091CE008F910F900FBE0F908E
S11328F01F90189578941F920F920FB60F9211247F
S11329000F900FBE0F901F90189578941F920F92FE
S11329100FB60F9211240F900FBE0F901F901895B1
S113292078941F920F920FB60F9211240F900FBE3E
S11329300F901F90189578941F920F920FB60F92D4
S113294011240F900FBE0F901F90189578941F922A
S11329500F920FB60F9211248F939F93809196003C
S1132960909197009F918F910F900FBE0F901F90A1
S1132970189578941F920F920FB60F9211242F93EB
S11329808F939F932FB7F894809118039091190314
S1132990019690931903809318032FBF9F918F91F1
S11329A02F910F900FBE0F901F9018951F920F92AA
S11329B00FB60F9211240BB60F922F933F934F93A0
S11329C05F936F937F938F939F93AF93BF93EF9393
S11329D0FF932EB5E0918603F0918703309739F089
S11329E08091120390911303E80FF91F20838091C3
S11329F0120390911303019690931303809312038F
S1132A008CB58F778CBD80911203909113036091E4
S1132A105D0270915E028617970708F03FC020910F
S1132A20740530917505E0918603F0918703AC013C
S1132A30465F5F4F6417750708F4AB0141505109B5
S1132A4084179507C8F42115310549F0D901A80F59
S1132A50B91F6C916EBD0DB407FEFDCF04C01EBC42
S1132A600DB407FEFDCF6EB5309721F0DF01A80F3E
S1132A70B91F6C930196E4CF4CB540684CBD211549
S1132A80310531F0F901E80FF91F20812EBD01C095
S1132A901EBC909313038093120311C010928703FA
S1132AA010928603109275051092740510925E02BE
S1132AB010925D0210921303109212038EB5FF91CF
S1132AC0EF91BF91AF919F918F917F916F915F91A2
S1132AD04F913F912F910F900BBE0F900FBE0F900F
S1132AE01F90189578941F920F920FB60F9211248D
S1132AF00BB60F922F933F934F935F936F937F93F4
S1132B008F939F93AF93BF93EF93FF9380916F0045
S1132B108D7F80936F0078948FB7F8949091880399
S1132B20913019F492E0909388038FBF0E94FD0CBA
S1132B30FF91EF91BF91AF919F918F917F916F9191
S1132B405F914F913F912F910F900BBE0F900FBE4D
S1132B500F901F90189578941F920F920FB60F92B2
S1132B6011240F900FBE0F901F90189578941F9208
S1132B700F920FB60F9211240F900FBE0F901F905B
S1132B80189578941F920F920FB60F9211240BB6DA
S1132B900F922F933F934F935F936F937F938F93F2
S1132BA09F93AF93BF93EF93FF93E6E8F0E08081A8
S1132BB09181208131818FB7F8943093A0022093C2
S1132BC09F0291E09093C8048FBF0E94FD0CFF9177
S1132BD0EF91BF91AF919F918F917F916F915F9191
S1132BE04F913F912F910F900BBE0F900FBE0F90FE
S1132BF01F90189578941F920F920FB60F9211247C
S1132C002F938F939F93AF93BF932FB7F894809193
S1132C109B0290919C02A0919D02B0919E0201960C
S1132C20A11DB11D80939B0290939C02A0939D02D1
S1132C30B0939E022FBFBF91AF919F918F912F911F
S1132C400F900FBE0F901F901895CFB7F89414BE35
S1132C5088E10FB6F89480936000109260000FBE74
S1132C6043E150E06FEF70E082E792E00E94DD18EC
S1132C708FEF8093DC048093AF0556985E98549848
S1132C805C9880916F008F7D80936F00209A0E94E2
S1132C90A701279A0E94A5010E9A169A8BEA92E040
S1132CA090936A028093690210929A028AE5809353
S1132CB08B0281E08093810080E28093B60083E000
S1132CC08093B10020918400309185008AE740917F
S1132CD08400509185004217530708F481509A01EB
S1132CE08111F5CF8091B2009091B2009817E1F371
S1132CF020918400309185008091B2009091B200BF
S1132D009817E1F380918400909185004096821B8E
S1132D10930B55E0969587955A95E1F79093DE04C9
S1132D208093DD041092B100109281001092B600DD
S1132D301092B20010928500109284008FEF87BB2E
S1132D4086BB8091B6008571E1F70A9A099A089AC0
S1132D50129A119A109A18B88FEF87B90C98149890
S1132D60109285001092840080916F00816080939E
S1132D706F0080918100887F82608093810010922F
S1132D80950010929400809171008160809371008D
S1132D9080919100887F8260809391000E94E40179
S1132DA0D82F8F3F19F00E94040EF8CF8093A2020F
S1132DB00E946A0480911F0290912002AC014F5F2F
S1132DC05F4F60E070E040939602509397026093E7
S1132DD098027093990227EE34E0309360022093B6
S1132DE05F0226E135E0309362022093610225E41C
S1132DF035E030936402209363022FEF3FEF30936A
S1132E00CE042093CD043093D0042093CF04309388
S1132E10D2042093D1043093D4042093D304309368
S1132E20D6042093D5048295807F80935B02D0934F
S1132E308A0281E192E09093BE058093BD0512E081
S1132E40D6E06091DD047091DE04CB01A0E0B0E037
S1132E50BC01CD012CE0660F771F881F991F2A95AE
S1132E60D1F7C12C31EED32EE12CF12CA701960120
S1132E700E945118215031092093C4003093C50099
S1132E801093C000D093C2001092C1006091DD0481
S1132E907091DE04CB01A0E0B0E0BC01CD014CE0B8
S1132EA0660F771F881F991F4A95D1F7A7019601CE
S1132EB00E945118215031092093CC003093CD0049
S1132EC01093C800D093CA001092C90084E490E023
S1132ED09093CA048093C9041092A7021092A90285
S1132EE08AE080938C031092A1021092A3021092A4
S1132EF0DF041092B3051092B2051092A905109246
S1132F001E030E94D20110920B0310920A03109226
S1132F1044028091B60080628093B6008091B6002E
S1132F2081FDFCCF82E08093B0008091B60080FDEB
S1132F30FCCF83E08093B1008091B60083FDFCCF89
S1132F4086EE8093B300809170008260809370005D
S1132F500E94DE050E94E4018F3F19F00E94040ED6
S1132F60F9CFCFBF78948FB7F89490918C039A30AF
S1132F7031F090919002943011F08FBF04C08FBF54
S1132F8085E00E94FF010E94C90180918E02811197
S1132F9017C080915C02811113C080917705813044
S1132FA029F48091880381110BC002C0853041F05F
S1132FB083E080935C020E94FD0C85E080938E0286
S1132FC00E94BD0CCFB7F8940E94E4018F3F09F032
S1132FD050C080917000837089F08091B6008A712E
S1132FE0E1F78091B3009091B200891B8C3040F0DE
S1132FF08091B200853F20F483E003C085E001C0E6
S113300082E0E0916E00E670E9F490916F009E72A8
S1133010E1F4E0917100EE72A9F40CB407FC15C060
S11330209091C100987189F4E091C900E87151F45C
S11330309091BC0092FD09C090917A0097FD04C064
S1133040E5E003C0E0E001C0E1E093B78E1708F4C7
S1133050E82FF0E0EE5FFE4F8491E92FE07FE1601E
S1133060E82BE3BF78948895F89483B78E7F83BF69
S1133070ABCFCFBF0E94040EA5CFAA1BBB1B51E14F
S113308007C0AA1FBB1FA617B70710F0A61BB70BD4
S1133090881F991F5A95A9F780959095BC01CD0179
S11330A00895A1E21A2EAA1BBB1BFD010DC0AA1F85
S11330B0BB1FEE1FFF1FA217B307E407F50720F09D
S11330C0A21BB30BE40BF50B661F771F881F991F18
S11330D01A9469F760957095809590959B01AC0161
S11330E0BD01CF010895E894DF93CF93FC01DB0188
S11330F00E94C5187F936F93E9019A01AC01BF93B5
S1133100AF933F932F93DF010E94C51826F46C1BE5
S11331107D0B820B930B9E01EB01FC010E94D418E2
S1133120AF91BF912F913F910E94D418BE01CF015E
S1133130F9012F913F91CF91DF910895EE0FFF1F79
S11331400024001C0BBE0790F691E02D099497FB18
S113315010F8169400080F93083098F00850232FA5
S1133160342F452F562F672F782F892F902DF4CF8A
S113317005949795879577956795579547953795CE
S113318027950A95AAF70F910895A29FB001B39FBE
S1133190C001A39F700D811D1124911DB29F700D5C
S11331A0811D1124911D08950E94C518460F571FB3
S11331B0C81FD91F08F431960895DC0101C06D932E
S11331C041505040E0F708950F931F93CF93DF933E
S11331D0E091BD05F091BE05238121FF1BC0EC01E8
S11331E000E010E089916091BD057091BE05DB019E
S11331F01896ED91FC911997882331F00995892B44
S113320089F30FEF1FEFEECF8AE00995892B11F4B4
S1133210C80102C08FEF9FEFDF91CF911F910F91F3
S10932200895F894FFCFAD
S1133226FFFFFFFFFFFF220100280328035703FFC8
S11332360100000002000000003F0500000000013C
S1133246004D6573736167652053656E740D004D9B
S11332566573736167652052656365697665640D98
S1053266000062
S9030000FC
